{
  "_format": "hh-sol-artifact-1",
  "contractName": "RedstoneMulticall3",
  "sourceName": "contracts/RedstoneMulitcall3.sol",
  "abi": [
    {
      "inputs": [
        {
          "components": [
            {
              "internalType": "address",
              "name": "target",
              "type": "address"
            },
            {
              "internalType": "bool",
              "name": "allowFailure",
              "type": "bool"
            },
            {
              "internalType": "bytes",
              "name": "callData",
              "type": "bytes"
            },
            {
              "internalType": "uint256",
              "name": "gasLimit",
              "type": "uint256"
            }
          ],
          "internalType": "struct RedstoneMulticall3.RedstoneCall3[]",
          "name": "calls",
          "type": "tuple[]"
        }
      ],
      "name": "aggregate3",
      "outputs": [
        {
          "components": [
            {
              "internalType": "bool",
              "name": "success",
              "type": "bool"
            },
            {
              "internalType": "bytes",
              "name": "returnData",
              "type": "bytes"
            }
          ],
          "internalType": "struct RedstoneMulticall3.Result[]",
          "name": "returnData",
          "type": "tuple[]"
        }
      ],
      "stateMutability": "payable",
      "type": "function"
    }
  ],
  "bytecode": "0x608060405234801561001057600080fd5b506106d8806100206000396000f3fe60806040526004361061001e5760003560e01c80639867906414610023575b600080fd5b61003d600480360381019061003891906102ae565b610053565b60405161004a91906104a5565b60405180910390f35b606060008383905090508067ffffffffffffffff811115610077576100766104c7565b5b6040519080825280602002602001820160405280156100b057816020015b61009d610223565b8152602001906001900390816100955790505b5091503660005b8281101561021a5760008482815181106100d4576100d36104f6565b5b602002602001015190508686838181106100f1576100f06104f6565b5b90506020028101906101039190610534565b925082600001602081019061011891906105ba565b73ffffffffffffffffffffffffffffffffffffffff16836060013584806040019061014391906105e7565b604051610151929190610689565b60006040518083038160008787f1925050503d806000811461018f576040519150601f19603f3d011682016040523d82523d6000602084013e610194565b606091505b50826000018360200182905282151515158152505050805160208401351761020e577f08c379a000000000000000000000000000000000000000000000000000000000600052602060045260176024527f4d756c746963616c6c333a2063616c6c206661696c656400000000000000000060445260646000fd5b816001019150506100b7565b50505092915050565b6040518060400160405280600015158152602001606081525090565b600080fd5b600080fd5b600080fd5b600080fd5b600080fd5b60008083601f84011261026e5761026d610249565b5b8235905067ffffffffffffffff81111561028b5761028a61024e565b5b6020830191508360208202830111156102a7576102a6610253565b5b9250929050565b600080602083850312156102c5576102c461023f565b5b600083013567ffffffffffffffff8111156102e3576102e2610244565b5b6102ef85828601610258565b92509250509250929050565b600081519050919050565b600082825260208201905092915050565b6000819050602082019050919050565b60008115159050919050565b61033c81610327565b82525050565b600081519050919050565b600082825260208201905092915050565b60005b8381101561037c578082015181840152602081019050610361565b60008484015250505050565b6000601f19601f8301169050919050565b60006103a482610342565b6103ae818561034d565b93506103be81856020860161035e565b6103c781610388565b840191505092915050565b60006040830160008301516103ea6000860182610333565b50602083015184820360208601526104028282610399565b9150508091505092915050565b600061041b83836103d2565b905092915050565b6000602082019050919050565b600061043b826102fb565b6104458185610306565b93508360208202850161045785610317565b8060005b858110156104935784840389528151610474858261040f565b945061047f83610423565b925060208a0199505060018101905061045b565b50829750879550505050505092915050565b600060208201905081810360008301526104bf8184610430565b905092915050565b7f4e487b7100000000000000000000000000000000000000000000000000000000600052604160045260246000fd5b7f4e487b7100000000000000000000000000000000000000000000000000000000600052603260045260246000fd5b600080fd5b600080fd5b600080fd5b6000823560016080038336030381126105505761054f610525565b5b80830191505092915050565b600073ffffffffffffffffffffffffffffffffffffffff82169050919050565b60006105878261055c565b9050919050565b6105978161057c565b81146105a257600080fd5b50565b6000813590506105b48161058e565b92915050565b6000602082840312156105d0576105cf61023f565b5b60006105de848285016105a5565b91505092915050565b6000808335600160200384360303811261060457610603610525565b5b80840192508235915067ffffffffffffffff8211156106265761062561052a565b5b6020830192506001820236038313156106425761064161052f565b5b509250929050565b600081905092915050565b82818337600083830152505050565b6000610670838561064a565b935061067d838584610655565b82840190509392505050565b6000610696828486610664565b9150819050939250505056fea264697066735822122085729ec4c95061144d57c7b4d3132348b70b4e1a30018b17f896f6efafcf29fb64736f6c63430008120033",
  "linkReferences": {},
  "deployedLinkReferences": {}
}