{
  "_format": "hh-sol-artifact-1",
  "contractName": "RedstoneMulticall3",
  "sourceName": "contracts/RedstoneMulitcall3.sol",
  "abi": [
    {
      "inputs": [
        {
          "components": [
            {
              "internalType": "address",
              "name": "target",
              "type": "address"
            },
            {
              "internalType": "bytes",
              "name": "callData",
              "type": "bytes"
            }
          ],
          "internalType": "struct Multicall3.Call[]",
          "name": "calls",
          "type": "tuple[]"
        }
      ],
      "name": "aggregate",
      "outputs": [
        {
          "internalType": "uint256",
          "name": "blockNumber",
          "type": "uint256"
        },
        {
          "internalType": "bytes[]",
          "name": "returnData",
          "type": "bytes[]"
        }
      ],
      "stateMutability": "payable",
      "type": "function"
    },
    {
      "inputs": [
        {
          "components": [
            {
              "internalType": "address",
              "name": "target",
              "type": "address"
            },
            {
              "internalType": "bool",
              "name": "allowFailure",
              "type": "bool"
            },
            {
              "internalType": "bytes",
              "name": "callData",
              "type": "bytes"
            },
            {
              "internalType": "uint256",
              "name": "gasLimit",
              "type": "uint256"
            }
          ],
          "internalType": "struct RedstoneMulticall3.RedstoneCall3[]",
          "name": "calls",
          "type": "tuple[]"
        }
      ],
      "name": "aggregate3",
      "outputs": [
        {
          "components": [
            {
              "internalType": "bool",
              "name": "success",
              "type": "bool"
            },
            {
              "internalType": "bytes",
              "name": "returnData",
              "type": "bytes"
            }
          ],
          "internalType": "struct Multicall3.Result[]",
          "name": "returnData",
          "type": "tuple[]"
        }
      ],
      "stateMutability": "payable",
      "type": "function"
    },
    {
      "inputs": [
        {
          "components": [
            {
              "internalType": "address",
              "name": "target",
              "type": "address"
            },
            {
              "internalType": "bool",
              "name": "allowFailure",
              "type": "bool"
            },
            {
              "internalType": "uint256",
              "name": "value",
              "type": "uint256"
            },
            {
              "internalType": "bytes",
              "name": "callData",
              "type": "bytes"
            }
          ],
          "internalType": "struct Multicall3.Call3Value[]",
          "name": "calls",
          "type": "tuple[]"
        }
      ],
      "name": "aggregate3Value",
      "outputs": [
        {
          "components": [
            {
              "internalType": "bool",
              "name": "success",
              "type": "bool"
            },
            {
              "internalType": "bytes",
              "name": "returnData",
              "type": "bytes"
            }
          ],
          "internalType": "struct Multicall3.Result[]",
          "name": "returnData",
          "type": "tuple[]"
        }
      ],
      "stateMutability": "payable",
      "type": "function"
    },
    {
      "inputs": [
        {
          "components": [
            {
              "internalType": "address",
              "name": "target",
              "type": "address"
            },
            {
              "internalType": "bytes",
              "name": "callData",
              "type": "bytes"
            }
          ],
          "internalType": "struct Multicall3.Call[]",
          "name": "calls",
          "type": "tuple[]"
        }
      ],
      "name": "blockAndAggregate",
      "outputs": [
        {
          "internalType": "uint256",
          "name": "blockNumber",
          "type": "uint256"
        },
        {
          "internalType": "bytes32",
          "name": "blockHash",
          "type": "bytes32"
        },
        {
          "components": [
            {
              "internalType": "bool",
              "name": "success",
              "type": "bool"
            },
            {
              "internalType": "bytes",
              "name": "returnData",
              "type": "bytes"
            }
          ],
          "internalType": "struct Multicall3.Result[]",
          "name": "returnData",
          "type": "tuple[]"
        }
      ],
      "stateMutability": "payable",
      "type": "function"
    },
    {
      "inputs": [],
      "name": "getBasefee",
      "outputs": [
        {
          "internalType": "uint256",
          "name": "basefee",
          "type": "uint256"
        }
      ],
      "stateMutability": "view",
      "type": "function"
    },
    {
      "inputs": [
        {
          "internalType": "uint256",
          "name": "blockNumber",
          "type": "uint256"
        }
      ],
      "name": "getBlockHash",
      "outputs": [
        {
          "internalType": "bytes32",
          "name": "blockHash",
          "type": "bytes32"
        }
      ],
      "stateMutability": "view",
      "type": "function"
    },
    {
      "inputs": [],
      "name": "getBlockNumber",
      "outputs": [
        {
          "internalType": "uint256",
          "name": "blockNumber",
          "type": "uint256"
        }
      ],
      "stateMutability": "view",
      "type": "function"
    },
    {
      "inputs": [],
      "name": "getChainId",
      "outputs": [
        {
          "internalType": "uint256",
          "name": "chainid",
          "type": "uint256"
        }
      ],
      "stateMutability": "view",
      "type": "function"
    },
    {
      "inputs": [],
      "name": "getCurrentBlockCoinbase",
      "outputs": [
        {
          "internalType": "address",
          "name": "coinbase",
          "type": "address"
        }
      ],
      "stateMutability": "view",
      "type": "function"
    },
    {
      "inputs": [],
      "name": "getCurrentBlockDifficulty",
      "outputs": [
        {
          "internalType": "uint256",
          "name": "difficulty",
          "type": "uint256"
        }
      ],
      "stateMutability": "view",
      "type": "function"
    },
    {
      "inputs": [],
      "name": "getCurrentBlockGasLimit",
      "outputs": [
        {
          "internalType": "uint256",
          "name": "gaslimit",
          "type": "uint256"
        }
      ],
      "stateMutability": "view",
      "type": "function"
    },
    {
      "inputs": [],
      "name": "getCurrentBlockTimestamp",
      "outputs": [
        {
          "internalType": "uint256",
          "name": "timestamp",
          "type": "uint256"
        }
      ],
      "stateMutability": "view",
      "type": "function"
    },
    {
      "inputs": [
        {
          "internalType": "address",
          "name": "addr",
          "type": "address"
        }
      ],
      "name": "getEthBalance",
      "outputs": [
        {
          "internalType": "uint256",
          "name": "balance",
          "type": "uint256"
        }
      ],
      "stateMutability": "view",
      "type": "function"
    },
    {
      "inputs": [],
      "name": "getLastBlockHash",
      "outputs": [
        {
          "internalType": "bytes32",
          "name": "blockHash",
          "type": "bytes32"
        }
      ],
      "stateMutability": "view",
      "type": "function"
    },
    {
      "inputs": [
        {
          "internalType": "bool",
          "name": "requireSuccess",
          "type": "bool"
        },
        {
          "components": [
            {
              "internalType": "address",
              "name": "target",
              "type": "address"
            },
            {
              "internalType": "bytes",
              "name": "callData",
              "type": "bytes"
            }
          ],
          "internalType": "struct Multicall3.Call[]",
          "name": "calls",
          "type": "tuple[]"
        }
      ],
      "name": "tryAggregate",
      "outputs": [
        {
          "components": [
            {
              "internalType": "bool",
              "name": "success",
              "type": "bool"
            },
            {
              "internalType": "bytes",
              "name": "returnData",
              "type": "bytes"
            }
          ],
          "internalType": "struct Multicall3.Result[]",
          "name": "returnData",
          "type": "tuple[]"
        }
      ],
      "stateMutability": "payable",
      "type": "function"
    },
    {
      "inputs": [
        {
          "internalType": "bool",
          "name": "requireSuccess",
          "type": "bool"
        },
        {
          "components": [
            {
              "internalType": "address",
              "name": "target",
              "type": "address"
            },
            {
              "internalType": "bytes",
              "name": "callData",
              "type": "bytes"
            }
          ],
          "internalType": "struct Multicall3.Call[]",
          "name": "calls",
          "type": "tuple[]"
        }
      ],
      "name": "tryBlockAndAggregate",
      "outputs": [
        {
          "internalType": "uint256",
          "name": "blockNumber",
          "type": "uint256"
        },
        {
          "internalType": "bytes32",
          "name": "blockHash",
          "type": "bytes32"
        },
        {
          "components": [
            {
              "internalType": "bool",
              "name": "success",
              "type": "bool"
            },
            {
              "internalType": "bytes",
              "name": "returnData",
              "type": "bytes"
            }
          ],
          "internalType": "struct Multicall3.Result[]",
          "name": "returnData",
          "type": "tuple[]"
        }
      ],
      "stateMutability": "payable",
      "type": "function"
    }
  ],
  "bytecode": "0x608060405234801561001057600080fd5b50611886806100206000396000f3fe6080604052600436106100fe5760003560e01c80634d2301cc1161009557806398679064116100645780639867906414610330578063a8b0574e14610360578063bce38bd71461038b578063c3077fa9146103bb578063ee82ac5e146103ed576100fe565b80634d2301cc1461026d57806372425d9d146102aa57806382ad56cb146102d557806386d516e814610305576100fe565b80633408e470116100d15780633408e470146101ba578063399542e9146101e55780633e64a6961461021757806342cbb15c14610242576100fe565b80630f28c97d14610103578063174dea711461012e578063252dba421461015e57806327e86d6e1461018f575b600080fd5b34801561010f57600080fd5b5061011861042a565b6040516101259190610e15565b60405180910390f35b61014860048036038101906101439190610e9f565b610432565b6040516101559190611096565b60405180910390f35b6101786004803603810190610173919061110e565b610650565b60405161018692919061121d565b60405180910390f35b34801561019b57600080fd5b506101a46107e6565b6040516101b19190611266565b60405180910390f35b3480156101c657600080fd5b506101cf6107f2565b6040516101dc9190610e15565b60405180910390f35b6101ff60048036038101906101fa91906112ad565b6107fa565b60405161020e9392919061130d565b60405180910390f35b34801561022357600080fd5b5061022c61081c565b6040516102399190610e15565b60405180910390f35b34801561024e57600080fd5b50610257610824565b6040516102649190610e15565b60405180910390f35b34801561027957600080fd5b50610294600480360381019061028f91906113a9565b61082c565b6040516102a19190610e15565b60405180910390f35b3480156102b657600080fd5b506102bf61084d565b6040516102cc9190610e15565b60405180910390f35b6102ef60048036038101906102ea919061142c565b610855565b6040516102fc9190611096565b60405180910390f35b34801561031157600080fd5b5061031a610a1f565b6040516103279190610e15565b60405180910390f35b61034a600480360381019061034591906114cf565b610a27565b6040516103579190611096565b60405180910390f35b34801561036c57600080fd5b50610375610bf7565b604051610382919061152b565b60405180910390f35b6103a560048036038101906103a091906112ad565b610bff565b6040516103b29190611096565b60405180910390f35b6103d560048036038101906103d0919061110e565b610db1565b6040516103e49392919061130d565b60405180910390f35b3480156103f957600080fd5b50610414600480360381019061040f9190611572565b610dd5565b6040516104219190611266565b60405180910390f35b600042905090565b60606000808484905090508067ffffffffffffffff8111156104575761045661159f565b5b60405190808252806020026020018201604052801561049057816020015b61047d610de0565b8152602001906001900390816104755790505b5092503660005b828110156106045760008582815181106104b4576104b36115ce565b5b602002602001015190508787838181106104d1576104d06115ce565b5b90506020028101906104e3919061160c565b9250600083604001359050808601955083600001602081019061050691906113a9565b73ffffffffffffffffffffffffffffffffffffffff168185806060019061052d9190611634565b60405161053b9291906116d6565b60006040518083038185875af1925050503d8060008114610578576040519150601f19603f3d011682016040523d82523d6000602084013e61057d565b606091505b5083600001846020018290528215151515815250505081516020850135176105f7577f08c379a000000000000000000000000000000000000000000000000000000000600052602060045260176024527f4d756c746963616c6c333a2063616c6c206661696c656400000000000000000060445260846000fd5b8260010192505050610497565b50823414610647576040517f08c379a000000000000000000000000000000000000000000000000000000000815260040161063e9061174c565b60405180910390fd5b50505092915050565b6000606043915060008484905090508067ffffffffffffffff8111156106795761067861159f565b5b6040519080825280602002602001820160405280156106ac57816020015b60608152602001906001900390816106975790505b5091503660005b828110156107dc5760008787838181106106d0576106cf6115ce565b5b90506020028101906106e2919061176c565b92508260000160208101906106f791906113a9565b73ffffffffffffffffffffffffffffffffffffffff1683806020019061071d9190611634565b60405161072b9291906116d6565b6000604051808303816000865af19150503d8060008114610768576040519150601f19603f3d011682016040523d82523d6000602084013e61076d565b606091505b50868481518110610781576107806115ce565b5b602002602001018190528192505050806107d0576040517f08c379a00000000000000000000000000000000000000000000000000000000081526004016107c7906117e0565b60405180910390fd5b816001019150506106b3565b5050509250929050565b60006001430340905090565b600046905090565b600080606043925043409150610811868686610bff565b905093509350939050565b600048905090565b600043905090565b60008173ffffffffffffffffffffffffffffffffffffffff16319050919050565b600044905090565b606060008383905090508067ffffffffffffffff8111156108795761087861159f565b5b6040519080825280602002602001820160405280156108b257816020015b61089f610de0565b8152602001906001900390816108975790505b5091503660005b82811015610a165760008482815181106108d6576108d56115ce565b5b602002602001015190508686838181106108f3576108f26115ce565b5b90506020028101906109059190611800565b925082600001602081019061091a91906113a9565b73ffffffffffffffffffffffffffffffffffffffff168380604001906109409190611634565b60405161094e9291906116d6565b6000604051808303816000865af19150503d806000811461098b576040519150601f19603f3d011682016040523d82523d6000602084013e610990565b606091505b508260000183602001829052821515151581525050508051602084013517610a0a577f08c379a000000000000000000000000000000000000000000000000000000000600052602060045260176024527f4d756c746963616c6c333a2063616c6c206661696c656400000000000000000060445260646000fd5b816001019150506108b9565b50505092915050565b600045905090565b606060008383905090508067ffffffffffffffff811115610a4b57610a4a61159f565b5b604051908082528060200260200182016040528015610a8457816020015b610a71610de0565b815260200190600190039081610a695790505b5091503660005b82811015610bee576000848281518110610aa857610aa76115ce565b5b60200260200101519050868683818110610ac557610ac46115ce565b5b9050602002810190610ad79190611828565b9250826000016020810190610aec91906113a9565b73ffffffffffffffffffffffffffffffffffffffff168360600135848060400190610b179190611634565b604051610b259291906116d6565b60006040518083038160008787f1925050503d8060008114610b63576040519150601f19603f3d011682016040523d82523d6000602084013e610b68565b606091505b508260000183602001829052821515151581525050508051602084013517610be2577f08c379a000000000000000000000000000000000000000000000000000000000600052602060045260176024527f4d756c746963616c6c333a2063616c6c206661696c656400000000000000000060445260646000fd5b81600101915050610a8b565b50505092915050565b600041905090565b606060008383905090508067ffffffffffffffff811115610c2357610c2261159f565b5b604051908082528060200260200182016040528015610c5c57816020015b610c49610de0565b815260200190600190039081610c415790505b5091503660005b82811015610da7576000848281518110610c8057610c7f6115ce565b5b60200260200101519050868683818110610c9d57610c9c6115ce565b5b9050602002810190610caf919061176c565b9250826000016020810190610cc491906113a9565b73ffffffffffffffffffffffffffffffffffffffff16838060200190610cea9190611634565b604051610cf89291906116d6565b6000604051808303816000865af19150503d8060008114610d35576040519150601f19603f3d011682016040523d82523d6000602084013e610d3a565b606091505b508260000183602001829052821515151581525050508715610d9b578060000151610d9a576040517f08c379a0000000000000000000000000000000000000000000000000000000008152600401610d91906117e0565b60405180910390fd5b5b81600101915050610c63565b5050509392505050565b6000806060610dc2600186866107fa565b8093508194508295505050509250925092565b600081409050919050565b6040518060400160405280600015158152602001606081525090565b6000819050919050565b610e0f81610dfc565b82525050565b6000602082019050610e2a6000830184610e06565b92915050565b600080fd5b600080fd5b600080fd5b600080fd5b600080fd5b60008083601f840112610e5f57610e5e610e3a565b5b8235905067ffffffffffffffff811115610e7c57610e7b610e3f565b5b602083019150836020820283011115610e9857610e97610e44565b5b9250929050565b60008060208385031215610eb657610eb5610e30565b5b600083013567ffffffffffffffff811115610ed457610ed3610e35565b5b610ee085828601610e49565b92509250509250929050565b600081519050919050565b600082825260208201905092915050565b6000819050602082019050919050565b60008115159050919050565b610f2d81610f18565b82525050565b600081519050919050565b600082825260208201905092915050565b60005b83811015610f6d578082015181840152602081019050610f52565b60008484015250505050565b6000601f19601f8301169050919050565b6000610f9582610f33565b610f9f8185610f3e565b9350610faf818560208601610f4f565b610fb881610f79565b840191505092915050565b6000604083016000830151610fdb6000860182610f24565b5060208301518482036020860152610ff38282610f8a565b9150508091505092915050565b600061100c8383610fc3565b905092915050565b6000602082019050919050565b600061102c82610eec565b6110368185610ef7565b93508360208202850161104885610f08565b8060005b8581101561108457848403895281516110658582611000565b945061107083611014565b925060208a0199505060018101905061104c565b50829750879550505050505092915050565b600060208201905081810360008301526110b08184611021565b905092915050565b60008083601f8401126110ce576110cd610e3a565b5b8235905067ffffffffffffffff8111156110eb576110ea610e3f565b5b60208301915083602082028301111561110757611106610e44565b5b9250929050565b6000806020838503121561112557611124610e30565b5b600083013567ffffffffffffffff81111561114357611142610e35565b5b61114f858286016110b8565b92509250509250929050565b600081519050919050565b600082825260208201905092915050565b6000819050602082019050919050565b60006111938383610f8a565b905092915050565b6000602082019050919050565b60006111b38261115b565b6111bd8185611166565b9350836020820285016111cf85611177565b8060005b8581101561120b57848403895281516111ec8582611187565b94506111f78361119b565b925060208a019950506001810190506111d3565b50829750879550505050505092915050565b60006040820190506112326000830185610e06565b818103602083015261124481846111a8565b90509392505050565b6000819050919050565b6112608161124d565b82525050565b600060208201905061127b6000830184611257565b92915050565b61128a81610f18565b811461129557600080fd5b50565b6000813590506112a781611281565b92915050565b6000806000604084860312156112c6576112c5610e30565b5b60006112d486828701611298565b935050602084013567ffffffffffffffff8111156112f5576112f4610e35565b5b611301868287016110b8565b92509250509250925092565b60006060820190506113226000830186610e06565b61132f6020830185611257565b81810360408301526113418184611021565b9050949350505050565b600073ffffffffffffffffffffffffffffffffffffffff82169050919050565b60006113768261134b565b9050919050565b6113868161136b565b811461139157600080fd5b50565b6000813590506113a38161137d565b92915050565b6000602082840312156113bf576113be610e30565b5b60006113cd84828501611394565b91505092915050565b60008083601f8401126113ec576113eb610e3a565b5b8235905067ffffffffffffffff81111561140957611408610e3f565b5b60208301915083602082028301111561142557611424610e44565b5b9250929050565b6000806020838503121561144357611442610e30565b5b600083013567ffffffffffffffff81111561146157611460610e35565b5b61146d858286016113d6565b92509250509250929050565b60008083601f84011261148f5761148e610e3a565b5b8235905067ffffffffffffffff8111156114ac576114ab610e3f565b5b6020830191508360208202830111156114c8576114c7610e44565b5b9250929050565b600080602083850312156114e6576114e5610e30565b5b600083013567ffffffffffffffff81111561150457611503610e35565b5b61151085828601611479565b92509250509250929050565b6115258161136b565b82525050565b6000602082019050611540600083018461151c565b92915050565b61154f81610dfc565b811461155a57600080fd5b50565b60008135905061156c81611546565b92915050565b60006020828403121561158857611587610e30565b5b60006115968482850161155d565b91505092915050565b7f4e487b7100000000000000000000000000000000000000000000000000000000600052604160045260246000fd5b7f4e487b7100000000000000000000000000000000000000000000000000000000600052603260045260246000fd5b600080fd5b600080fd5b600080fd5b600082356001608003833603038112611628576116276115fd565b5b80830191505092915050565b60008083356001602003843603038112611651576116506115fd565b5b80840192508235915067ffffffffffffffff82111561167357611672611602565b5b60208301925060018202360383131561168f5761168e611607565b5b509250929050565b600081905092915050565b82818337600083830152505050565b60006116bd8385611697565b93506116ca8385846116a2565b82840190509392505050565b60006116e38284866116b1565b91508190509392505050565b600082825260208201905092915050565b7f4d756c746963616c6c333a2076616c7565206d69736d61746368000000000000600082015250565b6000611736601a836116ef565b915061174182611700565b602082019050919050565b6000602082019050818103600083015261176581611729565b9050919050565b600082356001604003833603038112611788576117876115fd565b5b80830191505092915050565b7f4d756c746963616c6c333a2063616c6c206661696c6564000000000000000000600082015250565b60006117ca6017836116ef565b91506117d582611794565b602082019050919050565b600060208201905081810360008301526117f9816117bd565b9050919050565b60008235600160600383360303811261181c5761181b6115fd565b5b80830191505092915050565b600082356001608003833603038112611844576118436115fd565b5b8083019150509291505056fea2646970667358221220cd2a24bdf708afb33003af898f47cdce0e9d16a1583812625880557da34c22f264736f6c63430008120033",
  "linkReferences": {},
  "deployedLinkReferences": {}
}